:020000040800F2
:10000000F01F0020F9010008014A0008E54200083D
:100010009D46000889230008F172000800000000D6
:10002000000000000000000000000000D5530008A0
:100030003124000800000000255000086D5500081C
:10004000130200081302000813020008130200083C
:1000500013020008130200083524000813020008E8
:100060001302000879240008130200081302000894
:10007000130200081302000813020008130200080C
:100080001302000813020008130200084D72000852
:100090005972000813020008130200081302000836
:1000A00013020008E95500081302000813020008B3
:1000B000F555000801560008130200081302000855
:1000C00013020008130200081302000813020008BC
:1000D00013020008195B000813020008130200084D
:1000E00013020008130200081302000800F002F8CF
:1000F00000F073F80AA090E8000C82448344AAF14F
:100100000107DA4501D100F068F8AFF2090EBAE84C
:100110000F0013F0010F18BFFB1A43F0010318473B
:1001200084850000A48500000A444FF0000C10F8FC
:10013000013B13F0070408BF10F8014B1D1108BF65
:1001400010F8015B641E05D010F8016B641E01F805
:10015000016BF9D113F0080F1EBF10F8014BAD1C55
:100160000C1B09D16D1E58BF01F801CBFAD505E073
:1001700014F8016B01F8016B6D1EF9D59142D6D3CD
:10018000704700000023002400250026103A28BFF5
:1001900078C1FBD8520728BF30C148BF0B607047F9
:1001A000662907F09586642900F08A80732900F09B
:1001B0007885002070471FB500F040FE0400002045
:1001C000002107F0EDF9401C60600020002107F0DD
:1001D000D1F9E0601FBD10B510BD00F0A3FF1146BE
:1001E000FFF7E9FF07F0ACF901F04CFA03B4FFF7B1
:1001F000F2FF03BC01F07AFC094880470948004738
:10020000FEE7FEE7FEE7FEE7FEE7FEE7FEE7FEE7C6
:10021000FEE7FEE704480549054A064B7047000023
:10022000E7550008ED000008F0190020F01F00203D
:10023000F01B0020F01B00200FB41CB50C0007AA17
:10024000009001D02044401E074B7B44694601903A
:10025000069800F0F4FC002C03D06946002000F062
:1002600001FD1CBC5DF814FB210A000070B50C46B2
:100270000546012A05D02878800600D5EA690023C2
:1002800002E0012305E05B1C934202D2E05C0028FF
:10029000F9D1A869E618C01AA861286A184428622A
:1002A0002846AFF3008004E0D5E9012114F8010BE2
:1002B0009047B442F8D32846AFF3008070BD0000E9
:1002C0002DE9F0410646002410687529314616A52F
:1002D00010D0AFF30080002802DA404213A507E0F7
:1002E00031688A0701D512A502E0490704D511A596
:1002F000012401E0AFF3008000210A2206F1240767
:1003000009E0B0FBF2FCB0FBF2F302FB1C00303062
:1003100078541846491C0028F3D123462A46304613
:10032000BDE8F04100F01DBA000000002D00000003
:100330002B000000200000002DE9F0474FF0000ADC
:1003400089460446C0F820A02046E1688847002876
:1003500076D0252806D0D4E901219047206A401C98
:100360002062F1E7E168204600258847C4F81CA018
:1003700006460027C4F818A02A2E09D0304607F0F8
:100380005CF838B304EB8708303EC8F8186019E011
:1003900059F8041B204604EB87029161E168884705
:1003A000012F064618D1E069002820DA25F0200543
:1003B0001DE0D8F8180000EB800006EB4000303854
:1003C000C8F818002046E1688847064607F035F867
:1003D0000028EED1012F0AD02E2E08D12046E16848
:1003E00088477F1C0646022F45F02005C4DBA06924
:1003F000002803DA404245F00105A061E80701D07A
:1004000025F01005B6B1A6F14100192802D8203612
:1004100045F400654A463146204625604D46FFF7C3
:10042000BFFE58B1012806D0ED1D25F0070000F1F0
:10043000080989E704E005F1040985E730468AE701
:10044000206ABDE8F08770B5064600F07BF90468C5
:10045000054630460A22002100F07AFC2C6070BD6F
:10046000401ECAB210F8011F8A4202D00029F9D1F9
:100470000020704710B5431C02E010F8011B71B159
:100480008107FAD14FF0013202C88C1A8C4314EA6A
:10049000C211F9D0C01A0A0603D0C01E10BDC01A7E
:1004A00010BD0A0401D0801E10BD0902FCD0401E00
:1004B00010BD40EA010370B59B072ED14FF0013605
:1004C000042A2AD308C810C99D1B9D43121F15EA90
:1004D000C61517D0D8B2E1B2401A50EA056110D162
:1004E00098B2A1B2401A50EA05410AD123F07F40E8
:1004F00024F07F41401A50EA052102D1180EA0EBEA
:10050000146070BDA342DBD018BA21BA884201D969
:10051000012070BD4FF0FF3070BD0AB9002070BDE2
:1005200010F8013B11F8014B63B1A3420AD1521EEE
:1005300008D010F8013B11F8014B1BB1A34201D1C7
:10054000521EEDD1181B70BD032A40F2308010F00E
:10055000030C00F0158011F8013BBCF1020F62445E
:1005600098BF11F801CB00F8013B38BF11F8013BEF
:10057000A2F1040298BF00F801CB38BF00F8013B9C
:1005800011F0030300F01C84083AC0F0088051F811
:10059000043B083A51F804CBA0E80810F5E7121D17
:1005A0005CBF51F8043B40F8043BAFF30080D20736
:1005B00024BF11F8013B11F801CB48BF11F8012B02
:1005C00024BF00F8013B00F801CB48BF00F8012B25
:1005D00070474FF000020429C0F0128010F0030CA5
:1005E00000F01B80CCF1040CBCF1020F18BF00F826
:1005F000012BA8BF20F8022BA1EB0C0100F00DB8D5
:100600005FEAC17C24BF00F8012B00F8012B48BF32
:1006100000F8012B70474FF0000200B513469446D6
:100620009646203922BFA0E80C50A0E80C50B1F14A
:100630002001BFF4F7AF090728BFA0E80C5048BF5E
:100640000CC05DF804EB890028BF40F8042B08BFFC
:10065000704748BF20F8022B11F0804F18BF00F8F8
:10066000012B704710B5044610F0030F08BF11F0BE
:10067000030F40F015804FF0013E121FC0F20E80B4
:1006800051F8043BA3EB0E0C2CEA030C1CEACE1C25
:1006900008BF40F8043BF0D0A1F1040102F10402CC
:1006A000521E08DB11F8013B002B00F8013BF7D18B
:1006B0001146FFF78EFF204610BD00004FF0013CB1
:1006C00050F8042B51F8043B9A4221D1A2EB0C03C1
:1006D000934313EACC1317D150F8042B51F8043B81
:1006E0009A4215D1A2EB0C03934313EACC130BD11E
:1006F00050F8042B51F8043B9A4209D1A2EB0C03A9
:10070000934313EACC13DBD04FF00000704700BFD7
:10071000D01A01BAB1FA81F101F0180122FA01F000
:10072000CB40C1F12001DBB2C0B2C01A2CFA01F3F8
:10073000D11A914311EAC311E6D17047704770474F
:1007400070470000004870479019002010B5FFF76F
:10075000F9FF006810BD10B50446FFF7F3FF046011
:1007600010BD2DE9F0470D4699469246044600F12A
:1007700024080168880604D5E06921F01001216091
:1007800000E00120A84201DD471B00E00027A1692D
:100790007A1902EB0900081AA0612078C00602D479
:1007A0002046AFF30080002608E0D4E901211AF8C2
:1007B00006009047206A401C761C20624E45F4DB00
:1007C0002078C0060AD52046AFF3008006E0D4E9C1
:1007D000012130209047206A401C2062381EA7F17A
:1007E0000107F4DC07E0D4E9012118F8050090477F
:1007F000206A401C2062281EA5F10105F3DC20467A
:10080000AFF300802078000602D50220BDE8F08713
:100810000120FBE770472DE9FF4F0C461E464FF0C5
:10082000FF378BB0D2E90001DDF860800A908A467C
:10083000C1F30A5505B93D46002108464FF00000B6
:10084000BAF1000F00F4400005DA00EB80004FF42D
:10085000400101EA50004FEA9059B9F1010F00DD63
:10086000B9460A9850EA4A000ED044F61050A5F254
:10087000FF3545432F14B8F1000F1ED07542291ED5
:100880001EDDC9F100021CE0B8F1010F4FF00000BD
:1008900001D0302103E0F24305E02154401CB04276
:1008A000FBDB30460022002121540B99C1F808805F
:1008B000C1E900200FB0BDE8F08FBD1B6D1CDEE765
:1008C0004A4600DA694206A800F0BAFB06AB93E894
:1008D000070003AB83E8070050460A9901F020F9AE
:1008E0008DE80700A0F500501F3800900398002DF8
:1008F0000ADD42F21F014A460844002303A903907F
:10090000684601F0CBFB09E0A0F500504A461F38CD
:10091000002303A90390684601F0EAFB8DE8070075
:100920000004000C03D04FF0FF30410800E01046F7
:10093000B8F1000F03D00022009215461EE0751E8C
:1009400005D400F07FFA303262556D1EF9D5B346FA
:100950000122084302D000227F1C04E020783028C6
:1009600001D100227F1E002A099784D01DE0112D9D
:1009700007DA00F067FA303262556D1C50EA010266
:10098000F5D1084302D00098C8B10EE00021681EDE
:1009900005E0235C625C63542254401E491C814282
:1009A000F7DBAB46A81B401E0990002004F80B00A3
:1009B0000B98099AC0F80880C0E9002B7AE7112645
:1009C0004FF0000857E72DE9F04F88460446D21D46
:1009D00022F0070191B0D1E90001CDE90A0106F04A
:1009E00088FC02460B98C00F01D02D2007E020683C
:1009F000810701D52B2002E0202101EAC000032A53
:100A0000099001D0072A05DB03464146204600F045
:100A100067FA0BE12078800601D5E06900E0062046
:100A2000B8F1650F814606D0B8F1660F18D0B8F15D
:100A3000670F70D131E00020B9F1110F009001DB98
:100A4000112301E009F101030AAA01A90CA8FFF78B
:100A5000E2FEDDE90C70002609F10105834647E05E
:100A600001204B4600904FF000470AAA01A90CA8AC
:100A7000FFF7D1FEDDE90DB00C995D46002610B9F7
:100A800009F101000D18B9EB050003D4C0F1FF36E0
:100A900009F10105A5EB09002BE0B9F1010F01DA1D
:100AA0004FF001090020B9F1110F0090484601DD17
:100AB000112300E003460AAA01A90CA8FFF7ABFE28
:100AC000DDE90C704D4600268346207800070AD4E5
:100AD000AB4500DA5D4601A8012D04DD411911F88E
:100AE000011C302907D04F4502DA17F1040F04DA50
:100AF000012082460FE06D1EEEE7002F02DCED1BA9
:100B00003E4403E0781CA84200DD7D1CB81B00F1C8
:100B1000010A4FF000472078000703D4AA4501DB03
:100B20004FF0FF3A0021B7F1004F0DF143088DF867
:100B3000431024D002202B23002F01DA7F422D23E3
:100B40000A21021EA0F1010000DC5FB197FBF1FC5D
:100B500097FBF1F201FB1C7C17460CF1300C08F8F6
:100B600001CDEEE7A8F1010003702188090501D548
:100B7000452100E06521A0F1010800F8011C099859
:100B80000FA9A1EB0807FF1D00B10120411901EBDE
:100B9000EA70A1693844081A401EA0612078C00696
:100BA00002D42046AFF30080099828B1D4E901218E
:100BB0009047206A401C20622078C00622D520463B
:100BC000AFF300801EE0002E04DBB34502DD01A878
:100BD000805D00E03020D4E901219047206A401C6C
:100BE0002062761CAAF101005FEA000A0AD100F037
:100BF00025F9C0680168405CD4E901219047206A6A
:100C0000401C2062281EA5F10105DCDC07E0D4E9C8
:100C1000012118F8010B9047206A401C2062381E01
:100C2000A7F10107F3DC2046AFF30080032011B0E9
:100C300041E6000001694A1C02610878704700B56E
:100C40008FB0CDE901310021059105497944CDE905
:100C5000031011466846FFF76FFB0FB000BD0000A0
:100C6000E5FFFFFF0A6802F8010B0A607047D1E94F
:100C700000239A4202D2531C0B601070704710B5CB
:100C8000436913B1AFF3008001E0FFF7EFFA0120F1
:100C900010BD127800F124010A7000224A7001226E
:100CA000EDE711684FF0FF32E9E700000FB40023D1
:100CB00000B589B00CA900910B99CB60214B7B4406
:100CC0000693214B7B44079304236FF00042CDE948
:100CD00001321E4A7A446B4608920246002007F011
:100CE00059F909B05DF814FB70B506464FF0FF30B6
:100CF00015460C46324686B00091CDE901016946A1
:100D00000020049004A8FFF7D1FF024604982118A0
:100D100025B108B1084600E0204628600498002864
:100D20000DD0002A02DD0098884208D03246081B08
:100D300069460094CDE9010404A8FFF7B7FF06B0A7
:100D400070BD00009F020000B7020000F701000024
:100D50002DE9F04791460F4680460446002614F8D8
:100D6000015B2DB100F062F80068405DC007F6D16C
:100D70002B2D02D02D2D18D0641E4A463946204610
:100D800000F00EF927B13968A14201D1C7F80080FF
:100D90004FF0020471050BD54042002803DDFFF738
:100DA000D1FC0460A007BDE8F08746F48066E4E764
:100DB0000028F8DAFFF7C6FC04606FF00040F2E7A5
:100DC00010B5203AC0F00B80B1E81850203AA0E8E6
:100DD0001850B1E81850A0E81850BFF4F5AF5FEA1A
:100DE000027C24BFB1E81850A0E8185044BF18C9CD
:100DF00018C0BDE810405FEA827C24BF51F8043B74
:100E000040F8043B08BF7047D20728BF31F8023BC7
:100E100048BF11F8012B28BF20F8023B48BF00F85B
:100E2000012B7047004870479019002010B500F062
:100E300005F8001D10BD00BF69670000004870473D
:100E4000B019002030B5B0F10A024FEA900E71F1EE
:100E500000034EEA817EB0EB0E0061EB91014FEA98
:100E6000101E4EEA017E10EB0E0041EB11114FEA0D
:100E7000102E4EEA016E10EB0E0041EB11214FEAED
:100E8000104E4EEA014E10EB0E0041EB114140189E
:100E900041F100014FEAD00040EA41704FEAD10130
:100EA00010EB80054FEA810444EA907444EB01049E
:100EB0006D1944EB0404521BA3414FF0000348BFDB
:100EC0000A3200D530BD401C41F1000130BD10B5E3
:100ED0000446FFF7ABFF0068005D00F0010010BDA5
:100EE0002DE9F0411F46044603260168072A01F454
:100EF000006004DB08B116A505E016A503E008B103
:100F000015A500E015A521F010002060A069C01E05
:100F1000A0610FB1401EA0612046AFF300804FB129
:100F2000D4E9012138469047206A401C2062C01C49
:100F3000206206E0206AFAE7D4E9012115F8010BE6
:100F40009047761EF8D22046AFF30080BDE8F081CE
:100F50004E414E006E616E00494E4600696E66005D
:100F6000426842B1016811F8013B23B1521EC0E949
:100F70000012184670470121C160881E7047426800
:100F80005AB1C368016843B983688B4205D0491ED2
:100F9000521CC0E90012002070474FF0FF3070472C
:100FA0002DE9F05F824615468B4600270AF10104C1
:100FB000B9460078302801D09DB113E014F8010B38
:100FC0000127782803D0582801D045B10AE00DB197
:100FD000102D07D1002714F8010B102502E0082579
:100FE00000E00A250026B0460EE005FB080005FBE0
:100FF00006F101271FFA80F801EB1046B6F5803F95
:1010000000D3B94614F8010B294600F0B0F80028C7
:10101000EBDABBF1000F05D00FB1641E00E05446BF
:10102000CBF80040B9F1000F06D0FFF78BFB02218F
:101030000160C81EBDE8F09F48EA0640FAE70000DC
:101040002DE9F047814616468AB0354878440DC8E8
:101050008DE80D0032487844801C03AC0DC884E84C
:101060000D0041F69B300844372190FBF1F290FBD4
:10107000F1F5A5F1800501FB12041B3C02D5644289
:10108000012000E00020DFF898A080460027FA4405
:10109000AAF1BE0A0EE0E0070AD03246684607EB26
:1010A000470101230AEB810101F022F88DE80700D6
:1010B00064107F1C002CEED1194F7F44AE3F19E025
:1010C000E80715D007EB04100DF1180A90E80E00A0
:1010D0008AE80E00C068F04201D1981908903246A3
:1010E000012306A903A801F003F803AB83E8070076
:1010F0006D10641C002DE3D14FF0010332466946A8
:10110000B8F1000F03A802D000F0C8FF01E000F022
:10111000EFFFC9E90001C9F808200AB0BDE8F0876F
:10112000407000007546FFF77DFEAE46050069463B
:10113000534620F00700854618B020B5FFF76AF83F
:10114000BDE820404FF000064FF000074FF00008C8
:101150004FF0000B21F00701AC46ACE8C009ACE849
:10116000C009ACE8C009ACE8C0098D4670473A2810
:1011700000D2303820F02002412A01D3A2F13700FA
:10118000884201D34FF0FF30704700002DE9FF4F38
:1011900006468BB00878FF2806D0491C2D2805D0BC
:1011A00000244FF0000908E000200CE00124F8E7DB
:1011B00009EB8903491C00EB43090878FF28F7D1A4
:1011C00014B1C9F100008146107800252C46AA46CA
:1011D00029462D2801D02B2804D1521C2D2813D0AC
:1011E000002082468B461078FF280FD04FF0000C6D
:1011F0000A21521CA5FB017804FB018105FB0C119F
:10120000C5194BEB0104EEE70120EAE7002108468F
:101210004FF00000BAF1000F02D000EB8000400850
:10122000C0F38157012F01DD4FF0FF370E9955EACA
:10123000040009EB01080BD04FF0020918F5FA7F02
:1012400016DA4FEACA70002F706008DD012007E04F
:101250004FEACA70C6E900B00FB0BDE8F08F0020B9
:101260003060FFF76FFAC0F800901821084616E0CA
:10127000B8F5FA7F18DD002F02DAF748784401E06C
:10128000F6487844D0E90010C6E9001040EACA7078
:101290007060FFF757FAC0F80090142108460FB0AD
:1012A000BDE8F04F06F011BE002108464FF00000E7
:1012B000B8F10001099002DAC7F1000200E03A46F5
:1012C00001DAC8F1000106A8FFF7BAFE06AB93E801
:1012D000070003AB83E8070044F23E005BEA040129
:1012E0000090584604D144F21E012C465D46009100
:1012F000210C0904014306D10099240444EA154451
:101300002D041039009104F07F41014306D100996A
:10131000240244EA15642D020839009104F070415A
:10132000014306D10099240144EA15742D01091FD7
:10133000009104F04041014306D10099A40044EA21
:101340009574AD00891E009104F00041084304D15A
:1013500000986D196441401E00904FF001033A4619
:101360006846B8F1000FCDE9014503A902DD00F0A0
:10137000D4FE01E000F0A7FEBAF1000F04460D46CE
:1013800001D084F00044002108464FF00000099984
:1013900040F2FF77484010F00C0F07D124F00040D6
:1013A000284303D0C4F30A50B84212D1FFF7CAF958
:1013B000C0F80090C4F30A50B8420AD1A848784453
:1013C000D0E90010C6E9001004F000410843706045
:1013D00042E7C6E900543FE72DE9FF4F1F464FF0B3
:1013E000000A4FF0FF38454691B0D7E90146CDF8E5
:1013F0003CA0FFF723FDC0680168405C1090B9690C
:1014000012986D1C8847396A814688470028F6D1B2
:10141000B9F1FF3F0AD0002E24F4D06411DDB9F1F8
:101420002B0F08D0B9F12D0F0BD102E0404615B0BB
:1014300013E744F48064B96912986D1C8847761EDE
:101440008146600504A901D52D2000E02B20002E47
:1014500001F1010B0DF130088DF810003FDDB9F1FD
:10146000690F08D0B9F1490F05D0B9F16E0F02D05C
:10147000B9F14E0F1CD13B4601A8009580E85002FF
:10148000DDE912126FF0020006F088FDC11CCED11A
:101490000EE0B96912986D1C884781461398761E34
:1014A00044F4007405600F98401C002E0F9016DD68
:1014B000B9F1300FEDD0B9F1780F02D0B9F1580F72
:1014C0000DD10F9801280AD13B46CDE90054DDE942
:1014D0001212001F029606F05FFDC11CA7D11099E1
:1014E00089453ED144F0800406E01399681CAAF1B6
:1014F000010A44F400740860B9696D1C1298761EE4
:10150000884730288146F0D02BE01099894505D1D5
:10151000200603D4761E44F0800418E0484605F007
:101520008CFF08B3761E0DF123018B4544F4007443
:1015300008D2A9F130000BF8010B200607D5AAF15B
:10154000010003E0200602D40AF101008246A00552
:1015500002D51399681C0860B96912986D1C8847F8
:101560008146002ED1DC53E0002E51DDB9F1650F2C
:1015700002D0B9F1450F4BD1A00549D5B9696D1C11
:101580001298761E24F440748847002E81460CDDA4
:101590002B2804D0B9F12D0F07D144F48074B96918
:1015A00012986D1C8847761E8146E00501D52D21D5
:1015B00000E02B2108F8011BCDF8008021E0761E09
:1015C0000DF13901884544F400740CD2A9F13000C2
:1015D00010F0FF0088F8000002D10099884509D971
:1015E00008F1010806E0E00501D51E4801E042F2DD
:1015F0000F708246B96912986D1C8847814613980E
:101600000560002E04DD484605F017FF0028D6D1FE
:10161000F96912988847FF2053468BF8000088F834
:10162000000000200A900B9004AA0CA90AA8FFF75A
:10163000ADFDA00502D46FF00100F8E614F0240F10
:1016400012D0E0071CD13868DDE90A12031D3B60A7
:101650000068C0E9001213E04C7400003E74000002
:1016600002730000F1D8FFFF0AA9684605F074FE76
:10167000E00705D13868009A011D396000680260F2
:101680002846D4E610B50446AFF300802046BDE8F6
:101690001040FEF7ABBD00002DE9FF4F1F464FF095
:1016A0003C0987B04FF00042DDE9141001F1010858
:1016B000DDF858A002EA40500390002005908346D0
:1016C000054604460490B969461E08988847AAF161
:1016D000010A0290BAF1000F3BDD02982E2815D0C6
:1016E0001021FFF744FD00282EDB4FF0010B059978
:1016F000014317D0B9F1000F0BDB4A46C11700F0C8
:10170000FBF905430C43A9F1040905E0012004900D
:101710000BE008B145F0010501200590049820B9BF
:10172000361D02E0049800B1361FB969089808F127
:1017300001088847BBF1000FAAF1010A0290C9D045
:101740000999C1F80080C5E70298702808D0502890
:1017500006D0F96908988847BBF1000F14D04FE014
:10176000002002900120BBF1000F049009D0B9695C
:10177000089808F101088847AAF10109B9F1000F9A
:1017800007DCF969089888476FF001000BB0BDE8E5
:10179000F08F2B2804D02D280CD14FF0FF3004906F
:1017A000B969089808F101088847A9F10109B9F158
:1017B000000FE6DD411CE4D00A21FFF7D8FC002829
:1017C000DFDB029908F1010801EB810100EB410028
:1017D0000290B969089888470A21FFF7C8FC099A5E
:1017E000A9F10109B9F1000FC2F8008001DD00285C
:1017F000E7DAF969089888470499029800FB0166BE
:1018000055EA040004D004F04041090002D006E08B
:10181000039898E0A40044EA9574AD00B61E04F065
:101820000041080002D16D196441761E159810F030
:10183000240F03D04FF00B095C4803E04FF0280958
:101840006FF07D008246564507DAAAEB060189440F
:10185000B9F1410F01DD4FF0410901200021A9F14B
:10186000010200F049F9024628400B462140084396
:1018700001D0012100E00021501E029143F1FF310F
:1018800028402140084301D0012000E000200299B7
:10189000834651EA0B014FD0002108464FF000006B
:1018A000039900F4400039B100EB80004FF440018F
:1018B00000EBD07001EA60008015012802DD4FF0D6
:1018C000FF3000E013D0401C36D0029860B3BBF16B
:1018D000000F0CD14A460120002100F00DF92840EC
:1018E0002140084301D0012000E00020E0B10120A8
:1018F0004A46002100F000F9034640190A466141BA
:101900002D1A8C4111D3B9F1400F09DD159810F053
:10191000240F02D0AAF1340603E0AAF1170600E072
:10192000761C00254FF0004406E05B1E42F1FF32BA
:1019300020EA030521EA0204CAF10100B04206DAF6
:101940001B49039808430190002000900EE0039A81
:10195000C4F3D321E80A0A43164940EA44500A4333
:101960003146CDE90002684605F05CFD159810F09F
:10197000240F0BD01598C00715D13868DDE9001287
:10198000031D3B600068C0E900120CE002A8694634
:1019900005F0E2FC1598C00705D13868029A011DD0
:1019A0003960006802604046F0E6000002FCFFFF7C
:1019B0000000F07F0000F03F2DE9FF4F92461D46EA
:1019C00085B04FF00041DDE9124BDDE914727F1E56
:1019D00001EA4B50414940F0FF4940EA010800212B
:1019E00022F020004928049102D04E2828D04CE053
:1019F0003BA0012607C88DE80700A9690698641C6A
:101A000088477F1E014606D41DF8060018B121F054
:101A1000200181420BD0E96906988847032E34D013
:101A2000082E32D06FF0010009B0BDE8F08F761CAF
:101A3000032E01D0082EE0D1601CCAF80000DCE7BC
:101A4000A9690698641C88477F1E2AD420F02000CC
:101A5000412826D1A9690698641C88477F1E20D496
:101A600020F020004E281CD1A9690698641C8847E4
:101A70007F1E48F4002849F48009CAF8004001D4C8
:101A8000282806D0E969069888475FEACB7012D00B
:101A900022E0A9690698641C88477F1E01D40028AB
:101AA00003DAE96906988847BCE72928F1D1641C64
:101AB000CAF80040E9E71BF0240F07D02868049912
:101AC000031D2B600068C0E9001805E02868021DAE
:101AD0002A600068C0F800902046A5E70000F07F6B
:101AE000494E46494E49545900000000014918200A
:101AF000ABBEFEE726000200B2F120030AD5C2F118
:101B0000200301FA02F120FA03F300FA02F041EA9D
:101B10000301704700FA03F14FF00000704770476F
:101B20005FEA400C08BF91F0000F4FEA8C234FEAA8
:101B3000C12243EA51514FEA1C5018BF00F5F04052
:101B40004FEA300018BF41F000415FEA6C5C00F0E2
:101B50002980BCF1FF3F08BF40F080407047130C64
:101B600006BF12044FF0100C4FF0000C130E04BF10
:101B700012020CF1080C130F04BF12010CF1040C3B
:101B8000930F04BF92000CF1020CD30F04BF52005C
:101B90000CF1010C11464FF00002A0F11F00A0EB68
:101BA0000C00704711F0004F08BF704731F0004142
:101BB0003FF4D5AF0B0C06BF09044FF0100C4FF0EB
:101BC000000C0B0E04BF09020CF1080C0B0F04BF34
:101BD00009010CF1040C8B0F04BF89000CF1020CFD
:101BE000CB0F04BF49000CF1010CCCF12003A0EB9A
:101BF0000C0022FA03F302FA0CF241EA030100F1AD
:101C00000100704720F07F4C80EA030023F07F47FB
:101C1000ACEB070303F57C5300F0004003F1FF0336
:101C20002DE980494FEA154B09B44FEA144325EAE0
:101C30000B4E24EA03480FF2042606EB132749084B
:101C40003E785FEA320203FB0667C7F5000707FB31
:101C500006F64FEA54374FEAD64606F1020607FB6E
:101C6000066CCCF1005C4FEA1C472CEA074C07FBE2
:101C700006F40CFB06F504EB15464FEA961634BF46
:101C800000204FF000404FEAD13706FB07FC4FEA37
:101C90001C4C0CFB0BF7D21B03FB0CF761EB070191
:101CA0000CFB0EF7B0EB074072EB17420CFB08F78A
:101CB00034BFA2EB0742B2EB074261EB17414FEA98
:101CC0000C444FEA910706FB07FC4FEA1C4C0CFB47
:101CD0000BF7B0EBC74072EB573203FB0CF734BF86
:101CE000A2EBC742B2EBC74261EB57310CFB0EF7D8
:101CF000B0EBC70072EB57720CFB08F734BFA2EBD6
:101D0000C702B2EBC70261EB5771039F4FEA8161D3
:101D100041EA921104EBCC044FEAD1374FEA8262D8
:101D200006FB07FC42EA90124FEA80604FEA1C4C27
:101D30000CFB0BF7D21B03FB0CF761EB07010CFB51
:101D40000EF7B0EB074072EB17420CFB08F734BFFD
:101D5000A2EB0742B2EB074261EB17414FEA8C5509
:101D60004FEA910704EB9C2406FB07FC4FEA1C4C4E
:101D70000CFB0BF7B0EBC74072EB573203FB0CF7D1
:101D800034BFA2EBC742B2EBC74261EB57310CFB49
:101D90000EF7B0EBC70072EB57720CFB08F734BFBD
:101DA000A2EBC702B2EBC70261EB577115EB4C25F2
:101DB0004FEA816141EA92114FEA82624FEAD137DC
:101DC00042EA901206FB07FC44F100044FEA8060EF
:101DD0004FEA1C4C0CFB0BF7D21B03FB0CF761EB1F
:101DE00007010CFB0EF7B0EB074072EB17420CFB40
:101DF00008F734BFA2EB0742B2EB074261EB174191
:101E000015EB1C154FEA813141EA92414FEA8232CB
:101E100042EA90424FEA80304FEA0C7644F10004E7
:101E200048EA03434EEA0B484FF0000EB2EB080CB1
:101E300071EB030724BF624639464EEB0E0E4FF09E
:101E4000000B0018524149414BEB0B0BB2EB080C55
:101E500071EB03077BF1000B24BF624639464EEB62
:101E60000E0E4FF0000B0018524149414BEB0B0B8B
:101E7000B2EB080C71EB03077BF1000B24BF624649
:101E800039464EEB0E0E51EA020718BF46F0010626
:101E900016EB0E7655F1000254F1000103D5BDE8B2
:101EA0008901BDE80088BDE88901BDE80048B61990
:101EB000524141EB0101A3F10103704780807F7E15
:101EC0007D7C7B7A797877767675747372717170B0
:101ED0006F6E6E6D6C6C6B6A6A6968686766666562
:101EE0006464636362616160605F5F5E5E5D5D5CF0
:101EF0005C5B5B5A5A595958585757565655555561
:101F00005454535352525251515050504F4F4F4EC0
:101F10004E4D4D4D4C4C4C4B4B4B4A4A4A4949490E
:101F20004848484747474746464645454544444450
:101F300044434343434242424241414146EA06460A
:101F4000A3F570534FEA164646EA42564FEAD222AC
:101F500042EA415210B54FEAD121A3F1010300F04A
:101F60002FF820F0004000F1020C00F0004701EBD8
:101F700000501146BCF5006F40EA070000D210BDCA
:101F8000BAF1000F0AD01CB503B44FF004004FF0B3
:101F900004014FF000000FBCBDE810404FF00001FD
:101FA000BBF1010FB9BF04484FF0FF3103480021D6
:101FB00040EA070010BD00BFFFFFEF7F0000F07F89
:101FC000002B9C4630D477002BD01CB54FEA370746
:101FD00003B44FF010004FF01001BAF1000F06D01B
:101FE000BCF1000FDCBF40F0080040F008014FF0EA
:101FF00000000FBCBDE810400BF1010BBBF1010F5D
:1020000008BF5FEA170722BF12F1010211F10101B7
:102010004FF0004143F1000300F0004043EA0000AC
:102020007047F9D35708D0E746EA064613F1400F48
:102030004FEA16461FDD13F1200FDFBF16430A4695
:10204000002120335B42BED0C3F1200746EA06469A
:1020500002FA07F74FEA164646EA0706C3F12007D9
:1020600022FA03F201FA07F721FA03F14FF0000315
:1020700042EA0702A7E746EA020646EA06464FEAB0
:10208000164646EA0106BCBF46EA0646360C4FF045
:1020900000034FF000024FF0000194E72DE9804C5F
:1020A0009A46934670B491E8380007C831EA400C6C
:1020B00048BF34EA430C03D5FFF7A4FDFFF780FFC8
:1020C000F0BCBDE8008C2DE9804C9A46934670B474
:1020D00091E8380007C831EA400C48BF34EA430CA5
:1020E00003D5FFF78FFDFFF729FFF0BCBDE8008C9B
:1020F0002DE9804C9A46934670B491E8380007C8A1
:1021000010F0804F08BF13F0804F03D100F01AF891
:10211000FFF756FFF0BCBDE8008C2DE9804C9A46D5
:10212000934670B491E8380007C810F0804F08BF9C
:1021300013F0804F03D100F005F8FFF7FFFEF0BC6D
:10214000BDE8008C20F07F4780EA030023F07F4C3D
:1021500007EB0C03A3F57C5300F00040A3F1FE0352
:1021600092F0000F00F0B38095F0000F00F0778040
:102170002DE901494FEA11404FEA144621EA00488F
:1021800000FB06FC24EA064708FB06F607FB08F8F6
:1021900000FB07F718EB06484CEB164C4FEA124BC6
:1021A00018EB07484FEA15464CEB174022EA0B4E56
:1021B0000BFB06FC25EA06470EFB06F607FB0EFEA8
:1021C0000BFB07F71EEB064E4CEB164C4FF00006D0
:1021D0001EEB074E4CEB174B18EB0B0840F10000C1
:1021E00018EB0E0B58EB000840F100008F1A4FF06F
:1021F00000013CBFC943661B14BFB5EB040C0021B2
:102200003CBFC943F61B4FEA17444EEA8E0E27EA3D
:1022100004454FEA1C4704FB07622CEA074C05FB08
:1022200007F70CFB05F604FB0CFC16EB074642EB2C
:10223000174216EB0C4642EB1C421BEB060658EB12
:102240000202414146EA9E0601D5BDE80189B61960
:10225000524141EB0101A3F10103BDE801894FEABD
:1022600014454FEA114724EA054621EA074C05FBCD
:1022700007F406FB07F70CFB06F105FB0CFC11EB62
:10228000074144EB17444FEA124711EB0C4144EB72
:102290001C4422EA074C05FB07F206FB07F70CFB80
:1022A00006F605FB0CFC16EB074642EB174216EB55
:1022B0000C4642EB1C456A1854F1000148BF7047B8
:1022C000B619524141EB0101A3F10103704795F0AA
:1022D000000F37D04FEA11424FEA144721EA024675
:1022E00024EA074C02FB07F106FB07F70CFB06F498
:1022F00002FB0CFC14EB074441EB17414FEA154776
:1023000014EB0C4441EB1C4125EA074C02FB07F59A
:1023100006FB07F70CFB06F602FB0CFC16EB074668
:1023200045EB174516EB0C4645EB1C42121951F1D3
:10233000000148BF7047B619524141EB0101A3F1BA
:10234000010370474FEA14454FEA114724EA054656
:1023500021EA074C05FB07F106FB07F70CFB06F229
:102360004FF0000605FB0CFC12EB074241EB174156
:1023700012EB0C4251EB1C4148BF7047921841EBE5
:102380000101A3F101037047FEE700207047002020
:102390007047000010B500220449054803F0B4FC62
:1023A0000449034803F0AAFC002010BD780F002068
:1023B000B4020020780B002070B50A680C46054670
:1023C000501E40F2FF3188420AD229460A48FEF7E1
:1023D000BBF8094A216800205054104604F068FBFD
:1023E0000649206808602946054803F087FC044830
:1023F00003F068FC002070BD78070020600000201A
:10240000B4020020094A10B5D2F8B822D2F814223A
:102410000AB1012010BD0A460146044803F074FCCD
:10242000BDE81040014803F0CDBC0000B40200201C
:102430007047000070B50B480168C90711D001252D
:102440000560094C207800280BD108A004F024FF77
:10245000257002204FF47A71401C8842FCD3002082
:10246000207070BD14040140880100204558545F5D
:102470005452494747455200082000F073B872B6DD
:10248000FEE710B590F821100022022905D00421A2
:10249000816380F82020012010BD01680B6823F0C3
:1024A0000E030B6001680B6823F001030B6090F8CA
:1024B0004030C46B012101FA03F3636080F82110FE
:1024C00080F82020104610BD10B590F8211000248F
:1024D000022903D00421816301243DE001680A68D8
:1024E00022F00E020A6001680A6822F001020A6006
:1024F0001A4A0168914201D1012121E0174A1432A0
:10250000914201D110211BE0144A2832914201D19D
:10251000891515E0114A3C32914201D189140FE02E
:102520000E4A5032914202D14FF4803108E00B4AFA
:102530006432914202D14FF4801101E04FF080717A
:10254000064A083A5160012180F82110002180F8E4
:102550002010416B01B18847204610BD08000240A1
:1025600070470000044910B50A68024202D00860B2
:10257000FFF7F6FF10BD0000140401402DE9F84FED
:10258000DFF8B8910024A9F1040B23460F2709F1C5
:10259000040AABF1040EC9E00125A5402A40AA4275
:1025A0007DD1674ED1F804C0ACEB0608B44532D0FB
:1025B00014DCBCF1030F3AD009DCBCF1000F2AD0C7
:1025C000BCF1010F1CD0BCF1020F31D11DE0BCF1F8
:1025D000110F17D0BCF1120F2AD119E0B8F5881FDE
:1025E00019D006DCB8F5803F15D0B8F5801F1FD193
:1025F00011E0B8F5001F0ED0B8F5041F18D10AE09D
:10260000CB6815E0CB681B1D12E0CB6808330FE0E8
:10261000CB680C330CE08B682BB1012B4FF0080317
:1026200003D0456104E0042302E0056100E00023DB
:10263000FF2A01D8064601E000F104064FEA8405AE
:1026400001D9A5F12005D6F8008007FA05FC28EA93
:102650000C0803FA05F548EA0508C6F800804D683D
:10266000ED0062D5374DAE6946F00106AE61AD6949
:1026700024F0030605F001050095334D06EB050C2B
:10268000DCF80850A607360F07FA06F825EA080511
:10269000DFF8B880404503D14FF0000817E044E070
:1026A000DFF8AC80404502D14FF001080FE0DFF8C1
:1026B000A480404502D14FF0020808E0DFF898807E
:1026C000404502D14FF0030801E04FF0040808FA3A
:1026D00006F848EA0508CCF808804D68D9F800608B
:1026E000ED024D4601D5164300E096432E604D683D
:1026F000DAF80060AD02554601D5164300E0964376
:102700002E604D68DBF80060AD035D4601D51643D1
:1027100000E096432E604D68DEF80060ED037546DC
:1027200001D5164300E096432E60641C0D682A46CE
:10273000E5407FF431AFBDE8F88F000008040140A8
:10274000000011100010024000000140000801408C
:10275000000C014000100140001401400AB1016169
:1027600070470904FBE700000148806870470000DB
:10277000640000200248816802781144816070473B
:1027800064000020074810B5016841F010010160A5
:10279000032000F075F80F2000F006F800F024F890
:1027A000002010BD0020024070B50D4D04464FF4CE
:1027B0007A712878B1FBF0F00A490968B1FBF0F0B2
:1027C00000F0FEFF48B9102C07D200222146501E0F
:1027D00000F036F800206C6070BD012070BD000074
:1027E00064000020700000200C4808B5816941F0A9
:1027F00001018161816901F001010091C16941F02C
:102800008051C161C06900F0805000900448416867
:1028100021F0E06141F00071416008BD001002400C
:1028200000000140002809DB00F01F020121914057
:102830004009800000F1E020C0F80011704700005E
:10284000F0B40E4B1B680C46C3F30223C3F107051B
:10285000042D00D90425191D072901D2002300E009
:10286000DB1E012606FA05F1491E214099409E40D3
:10287000761E16403143F0BC04F04FBD0CED00E075
:10288000064900F0070208684FF6FF03184040EAC7
:102890000220034A10430860704700000CED00E07E
:1028A0000000FA0510B50C0607D501F0070101EB91
:1028B000810100EBC100103005E001EB810100EB6C
:1028C000C10000F5A87099B232B1012202730181F2
:1028D000190C4181002010BD00220273C180F9E76C
:1028E000704701EB810200EBC202D0F8D402526AB9
:1028F00003F017BC01EB810200EBC202D0F8D40256
:10290000D2F8642103F070BC70B504460B0601F0E8
:10291000070000EB800104EBC1014FF001024FF012
:10292000000502D54A74103103E081F8515101F5D8
:10293000A871087094F89002012808D084F89022B9
:10294000206804F017F984F89052002070BD02202E
:1029500070BD70B5044601F00F002279904201D994
:10296000012070BD0B0601F0070000EB800104EBB5
:10297000C1014FF001024FF0000502D54A74103139
:1029800003E081F8515101F5A8718D70087094F839
:102990009002012808D084F89022206804F087F97A
:1029A00084F89052002070BD022070BD2DE9F05FC8
:1029B00004685FEA424C0B788D69B4F850C04FF060
:1029C00000064BF68F7948F2800A48F68F7B48F272
:1029D000C00E4FF480672AD54FF0020808EBC308F9
:1029E000C44407EB4C07E45BC4F30904A54203D3DA
:1029F0002D1B8D6101D00BE08E61066836F82350E7
:102A000005EA090585F4005545EA0A0526F823502C
:102A1000520609D50D78036833F8252002EA0B0227
:102A200042EA0E0223F8252084B30A8929E04FF0F8
:102A3000060808EBC308C44407EB4C07E45BC4F387
:102A40000904A54203D32D1B8D6101D00BE08E61DB
:102A5000066836F8235005EA090585F4005545EA6D
:102A60000A0526F82350520609D40B78056835F874
:102A7000232002EA0B0242EA0E0225F823202CB1A1
:102A80004A8949690068234604F0F0FB2046BDE806
:102A9000F09F2DE9F05F054600680C465FEA426C46
:102AA00016468B692278B0F850C048F68F774CF202
:102AB00080094FF4004B4FF6FF7E4FF4806A4FF0D1
:102AC000000172D54FF0020808EBC208E0440AEB9F
:102AD000480C30F80C00C0F30900834211D91B1ACE
:102AE000A3610FD0730407D52E6836F822303B401F
:102AF00043EA090326F8223094F82420012A47D01B
:102B000052E1A161607810B1012813D01AE0286861
:102B1000B0F85030184400EB0210B0F80424C2F3AF
:102B20000902A0F80424B0F8042442F40042A0F8FA
:102B3000042407E02868B0F85030184400EB021075
:102B4000A0F804146278286812B1012A11D018E0A4
:102B5000B0F850100844217800EB0110B0F80C14C4
:102B6000C1F30901A0F80C14B0F80C1441F40041B1
:102B700005E0B0F850201044227800EB0210A0F8D5
:102B80000C1421782846FFF7ACFE700472D40BE1D8
:102B9000626902446261E2690244E2612369226A75
:102BA0009A4203D31846111A04E03EE084F8241038
:102BB0000AB110462162617811B1012929D031E0B2
:102BC0002968B1F850201144227801EB0211B1F8C4
:102BD0000424C2F30902A1F8042401F204413E28AE
:102BE00007D94209C30600D1521E0B884BEA822244
:102BF00007E048B14208C30700D0521C0B880EEA18
:102C0000822213430B800DE00A8842F400420A80BE
:102C100008E02968B1F850201144227801EB021134
:102C2000A1F8040483B22289BAE04FF0060808EB49
:102C3000C208E0440AEB480C30F80C00C0F309006D
:102C4000834211D31B1AA3610FD0730407D42E68DB
:102C500036F822303B4043EA090326F8223094F844
:102C60002420012A51D09FE0A161607818B1012889
:102C700014D01BE03FE02868B0F85030184400EB57
:102C80000210B0F80424C2F30902A0F80424B0F83A
:102C9000042442F40042A0F8042407E02868B0F8B5
:102CA0005030184400EB0210A0F804146278286831
:102CB00012B1012A11D018E0B0F850100844217860
:102CC00000EB0110B0F80C14C1F30901A0F80C14CA
:102CD000B0F80C1441F4004105E0B0F85020104465
:102CE000227800EB0210A0F80C1421782846FFF798
:102CF000F8FD700458D42278296831F82200384051
:102D000040EA090021F822004EE062690244626153
:102D1000E2690244E2612369226A9A4203D31846B7
:102D2000111A216204E00AB11046216284F82410CD
:102D30006278296812B1012A28D02FE0B1F850201A
:102D40001144227801EB0211B1F80C24C2F30902FC
:102D5000A1F80C2401F20C413E2807D94209C30610
:102D600000D1521E0B884BEA822207E048B142088C
:102D7000C30700D0521C0B880EEA822213430B803B
:102D80000CE00A8842F400420A8007E0B1F85020C3
:102D90001144227801EB0211A1F80C04628983B27C
:102DA0006169286804F091FA2278296831F82200D4
:102DB00048F6BF73184080F0300048F28003184393
:102DC00021F822000020BDE8F09F01F0070101EB8F
:102DD000810100EBC100D0F86C0170472DE9F04192
:102DE00004460F0601F0070000EB800104EBC1016F
:102DF0004FF001064FF0000502D54E74103103E08C
:102E000081F8515101F5A871022B08700A61CB704D
:102E100000D10D7194F89002012809D084F89062D5
:102E2000206803F0F1FC284684F89052BDE8F08158
:102E30000220FBE710B501F0070404EB840100EB6E
:102E4000C101C1E959230022C1F86C2181F8512147
:102E500081F85041006801F5A87103F07DFF002062
:102E600010BD70B504460D4601F007002179884277
:102E700001D9012070BD29064FF000064FF0010274
:102E800006D500EB800104EBC1014A74103107E064
:102E900005EB850104EBC10181F8516101F5A871D1
:102EA0008A70087094F89002012807D084F8902264
:102EB000206803F038FF680702D006E0022070BDEA
:102EC00004F52671206803F0F0FE84F8906200207B
:102ED00070BD10B501F0070404EB840100EBC101E3
:102EE000C1E90923012281F834200B630023CB625E
:102EF0004A7401F8104F006803F02EFF002010BD47
:102F00001FB50446006804F0ADF9010403D520465E
:102F100001F077FD1FBD41050DD5206830F8441F35
:102F200021F480610180204600F008F9002120464C
:102F300000F01FF91FBD410405D5206830F8441F7B
:102F400021F4804174E0810405D5206830F8441FE5
:102F500021F400516CE0C10414D5206830F8401F02
:102F600021F004010180206830F8401F21F00801A1
:102F70000180204600F0F5F8206830F8441F21F465
:102F8000805155E0010540D5D4F800200020694665
:102F900032F8203021F81030401CC0B20828F7D396
:102FA00032F8400F40F001001080206830F8402FC8
:102FB00022F0010202802068B0F844205205FBD5BF
:102FC00030F8442F22F4806202800020236831F818
:102FD000102023F82020401CC0B20828F6D3206817
:102FE00030F8401F41F008010180206830F8441F8C
:102FF00021F400610180206830F8401F41F0040195
:103000000180204600F0E8F81FBD810509D5206841
:1030100030F8441F21F400710180204600F0A5F82B
:103020001FBDC005FCD5206830F8441F21F4807115
:1030300001801FBD2DE9F041040004D094F89102F5
:10304000002518B107E00120BDE8F08184F8905216
:10305000204600F04DF8032084F891026571206845
:1030600003F01CFE94E80F0003F082FD022698BBDB
:103070000021206804F021F970BB002001270BE03B
:1030800000EB800104EBC1014F740874CD740D6234
:103090004D62401CC0B28D6221798142F0D800207F
:1030A00012E000BF00EB800104EBC10181F8515137
:1030B00081F8500181F85351C1F86051C1F8645151
:1030C000401CC0B2C1F8685121798142EAD894E825
:1030D0000F0003F0DAFD10B184F89162B3E7657375
:1030E00084F89172206803F0CEFD0020ACE7000068
:1030F00008B500680F4988421AD10F48C16941F4E8
:103100000001C161C069002200F400000090114676
:103110001320FFF795FB1320FFF784FB00221146D5
:103120001420FFF78DFBBDE808401420FFF77ABBA1
:1031300008BD0000005C00400010024070B504466D
:1031400080790125022801D0FFF799F92946D4F8A2
:10315000D40203F031F9D4F8D402BDE8704003F092
:10316000EDB8D0F8D40203F011B9D0F8D40203F0CE
:1031700017B910B5044690F8900201280AD0012032
:1031800084F890026173206804F099F8002084F8B4
:10319000900210BD022010BDD0F8D42200F5267197
:1031A000104603F015B910B5044690F890020128B6
:1031B00010D0012084F89002206804F03EF801212C
:1031C0002046FFF78DFB206803F05BFD002084F8AC
:1031D000900210BD022010BD10B50446D0F8D402F4
:1031E00003F035F9A07A002804D00348016841F0C3
:1031F0000601016010BD000010ED00E02DE9F8436C
:1032000005460078354CC00754D0E0690026C00060
:1032100008D4E06940F08050E061E069012600F0E8
:10322000805000902E480168C90512D4016880467C
:1032300041F480710160FFF797FA074605E000BF8F
:10324000FFF792FAC01B642823D8D8F80000C00505
:10325000F6D5206A10F4407021D0A98801F440719D
:1032600081421CD0206A1F49012220F440700A606C
:1032700000220A602062C00711D0FFF775FA0746E6
:1032800041F2883808E000BFFFF76EFAC11B4145E4
:1032900002D90320BDE8F883206A8007F4D5206AAC
:1032A000696820F44070084320621EB1E06920F094
:1032B0008050E0612878800705D56068A96820F40F
:1032C0004040084360602878C00605D56068E9681A
:1032D00020F48000084360600020DBE7001002401B
:1032E00000700040400442422DE9F0470F460500BF
:1032F00061D0434E306800F00700B84209D2306810
:1033000020F0070038433060306800F00700B84212
:1033100051D128683B4C810712D5400703D560681E
:1033200040F4E06060602878000703D5606840F4EE
:10333000605060606068A96820F0F0000843606039
:103340002878C00728D06868012810D02168022892
:1033500010D0890700292EDA616821F003010143AA
:103360006160FFF701FA804641F288390DE021687B
:103370008903EFE78901EDE7FFF7F6F9A0EB080114
:10338000494502D90320BDE8F0876068696800F00C
:103390000C00B0EB810FEFD1306800F00700B842AD
:1033A0000BD9306820F0070038433060306800F0F7
:1033B0000700B84201D00120E5E72878400705D58D
:1033C0006068E96820F4E0600843606028780007DE
:1033D00006D56068296920F4605040EAC100606049
:1033E00000F038F86168084AC1F30311515CC84025
:1033F0000649086006480068FFF7D6F90020C2E7D2
:103400000020024000100240E27F0008700000200F
:10341000680000200448054900684968044AC1F36F
:103420000221515CC840704770000020001002402B
:10343000F27F00080448054900684968044AC1F35E
:10344000C221515CC840704770000020001002404B
:10345000F27F00080E4A51680E4801F00C03042B5D
:1034600011D0082B0FD10C48C1F38343C903C05CB2
:103470000AD55168084AC1F34041921E515C054A81
:103480005043B0FBF1F070470449484370470000D7
:103490000010024000127A00D27F000800093D00AF
:1034A0002DE9F84F040070D02078C04DC00749D0F6
:1034B0006868C0F38100012807D06868C0F3810004
:1034C000022809D16868C00306D52868800339D569
:1034D00060680028E7D035E06068B0F5803F0BD029
:1034E00010B1B0F5A02F11D0286820F480302860EA
:1034F000286820F4802002E0286840F480302860AA
:10350000606890B1FFF730F906460AE0286840F499
:1035100080202860F0E700BFFFF726F9801B6428B1
:1035200073D828688003F7D50CE0FFF71DF906462D
:1035300005E000BFFFF718F9801B6428F0D8286861
:103540008003F7D420789A4E80074FF001094FF09E
:10355000000839D5686810F00C0F07D06868C0F310
:103560008100022809D16868C00306D42868800752
:1035700014D52069012808D110E02069B0B1C6F83F
:103580000090FFF7F1F8074605E00AE1FFF7ECF8D5
:10359000C01B0228C4D828688007F7D5286861694D
:1035A00020F0F80040EAC10028600DE0C6F8008075
:1035B000FFF7DAF8074604E0FFF7D6F8C01B022849
:1035C00023D828688007F7D4207800072CD57948BD
:1035D000A169D9B1C0F80090FFF7C6F8074604E02A
:1035E000FFF7C2F8C01B02280FD8686A8007F7D51A
:1035F00071484FF4FA510068B0FBF1F0009000BF41
:103600000098411E0091FAD20EE080E0C0F80080E0
:10361000FFF7AAF8074604E0FFF7A6F8C01B022848
:1036200075D8686A8007F7D42078400760D5E869C4
:103630000027C00008D4E86940F08050E861E869DC
:10364000012700F0805000905C480168C90513D440
:103650000168834641F480710160FFF785F8824676
:1036600006E000BFFFF780F8A0EB0A0064284ED800
:10367000DBF80000C005F5D5E06801280AD008B1E4
:10368000052813D0286A20F001002862286A20F05B
:10369000040002E0286A40F001002862E06841F27C
:1036A000883B98B1FFF760F882460BE0286A40F04B
:1036B00004002862EEE700BFFFF756F8A0EB0A010E
:1036C00059455AD8286A8007F6D50CE0FFF74CF820
:1036D000824605E0FFF748F8A0EB0A0159454CD8AF
:1036E000286A8007F6D41FB1E86920F08050E861AD
:1036F000E06988B36968C1F38101022944D00228D6
:10370000C6F8608004D0FFF72FF8044638E034E0B4
:10371000FFF72AF8074604E0FFF726F8C01B022847
:103720002BD828688001F7D4206AB0F5803F05D1F6
:103730006868A16820F4003008436860D4E9080193
:103740000843696821F4741108436860C6F8609002
:10375000FFF70AF8044606E025E000BFFFF704F88B
:10376000001B022809D828688001F7D51BE000BF9C
:10377000FEF7FAFF001B022802D90320BDE8F88FEC
:1037800028688001F4D40EE00128F7D06868226A26
:1037900000F48031914204D1616A00F470108842D3
:1037A00001D00120EAE70020E8E700000010024015
:1037B000000042428004424270000020007000403D
:1037C00010B5401EB0F1807F01D3012010BD4FF035
:1037D000E02460610F21601703F09FFD0020A061CD
:1037E00007202061002010BD7047704710B590F889
:1037F0003C20012A22D0012280F83C20CA688C6833
:1038000022F4407222434C6822F4806222430C6806
:1038100022F4006222430C6922F4805222434C6954
:1038200022F400522243C969002322F480420A4351
:1038300001684A6480F83C30002010BD022010BDB1
:1038400070B590F83C20012A26D0012480F83C4035
:10385000022280F83D2003685A689D6822F07006B5
:103860000A6832435A600D4B02689A4208D0B2F19E
:10387000804F05D00A4B9A4202D00A4B9A4204D19B
:10388000496825F080031943916080F83D4000218C
:1038900080F83C10084670BD022070BD002C01402D
:1038A000000400400008004010B5040003D094F864
:1038B0003D0010B107E0012010BD002084F83C005D
:1038C000204600F01FF8022084F83D00211D2068EA
:1038D00001F09CFE012084F8460084F83E0084F844
:1038E0003F0084F8400084F8410084F8420084F8E6
:1038F000430084F8440084F8450084F83D0000202B
:1039000010BD000008B51E4A01681E4891420ED144
:10391000816941F4006181618069002200F40060E6
:10392000009011461920FEF78BFF192013E0B1F12A
:10393000804F14D0144A914220D1C16941F0020154
:10394000C161C069002200F00200009011461D20F4
:10395000FEF776FF1D20BDE80840FEF763BFC16992
:1039600041F00101C161C069002200F00100009036
:1039700011461C20FEF764FF1C20ECE708BD000088
:10398000002C0140001002400004004090F83D105F
:10399000012901D001207047022180F83D10016803
:1039A000CA6842F00102CA6000680B49884208D028
:1039B000B0F1804F05D00949884202D008498842B9
:1039C00004D1816801F00701062903D0016841F0A4
:1039D0000101016000207047002C014000040040FC
:1039E0000008004070B5044690F83C00002501280E
:1039F00017D0012684F83C60022084F83D0020683E
:103A0000826822F0770222F47F42826008685028A0
:103A100038D00DDC20284FD005DC90B3102811D110
:103A20004AE0022070BD302846D040280AD13BE051
:103A300060282FD070280DD0B0F5805F03D0B0F58E
:103A4000005F12D0012584F83D60002084F83C001E
:103A5000284670BDCB68D1E90121206801F01FFE26
:103A60002068816841F0770109E0CB68D1E9012144
:103A7000206801F014FE2068816841F48041816073
:103A8000E1E719E0CA684968206801F0BDFE5021ED
:103A9000206806E0CA684968206801F0C6FE602117
:103AA000206801F006FECEE7CA684968206801F088
:103AB000ABFE40212068F4E7226801461046F0E79B
:103AC00070472DE9F04104460068C66805694FF06B
:103AD0000007A90713D5B10711D5F91E016101200F
:103AE0002077206880698007204602D0FFF7E8FF32
:103AF00004E000F0C1F8204600F053F9277768078A
:103B000016D5700714D521686FF0040008610220F3
:103B100020772068806910F4407F204602D0FFF7AC
:103B2000CFFF04E000F0A8F8204600F03AF927772C
:103B3000280715D5300713D521686FF008000861F4
:103B4000042020772068C0698007204602D0FFF754
:103B5000B7FF04E000F090F8204600F022F9277744
:103B6000E80616D5F00614D521686FF0100008613C
:103B7000082020772068C06910F4407F204602D0DA
:103B8000FFF79EFF04E000F077F8204600F009F907
:103B90002777E80708D0F00706D021686FF001000A
:103BA0000861204600F084F9280608D5300606D5BD
:103BB00021686FF0800008612046FFF715FE680657
:103BC00008D5700606D521686FF0400008612046D0
:103BD00000F08AF9A8060AD5B00608D521686FF06A
:103BE000200008612046BDE8F041FFF7FEBDBDE8BA
:103BF000F081000010B586B0002100910191029182
:103C00000391194C0368194A02211948A34209D1AA
:103C1000936943F004039361926902F004020492F1
:103C2000821518E0B3F1804F0CD0124CA34218D18A
:103C3000936943F004039361926902F004020492D1
:103C4000402208E0936943F004039361926902F013
:103C5000040204920122CDE9002103916946FEF796
:103C60008DFC06B010BD0000002C01400010024089
:103C70000008014000040040704770B5044690F809
:103C80003C0000260D4601280FD0012084F83C009E
:103C90006AB1042A1DD0082A2FD00C2A3FD0012651
:103CA000002084F83C00304670BD022070BD2068C2
:103CB00001F008FD2068816941F0080181612068F8
:103CC000816921F004018161206881692A691143B9
:103CD00011E0206801F01EFD2068816941F4006157
:103CE00081612068816921F4806181612068816936
:103CF0002A6941EA02218161D2E7206801F036FD9C
:103D00002068C16941F00801C1612068C16921F0E2
:103D10000401C1612068C1692A69114311E020686A
:103D200001F050FD2068C16941F40061C161206863
:103D3000C16921F48061C1612068C1692A6941EAD1
:103D40000221C161ACE710B5040003D094F83D0036
:103D500010B107E0012010BD002084F83C0020468F
:103D600000F01EF8022084F83D00211D206801F0BB
:103D70004DFC012084F8460084F83E0084F83F00A2
:103D800084F8400084F8410084F8420084F843003D
:103D900084F8440084F8450084F83D00002010BDFC
:103DA0007047704710B50446022249B104290ED06D
:103DB000082913D094F84100012816D0012010BD25
:103DC00094F83E000128F9D184F83E200FE094F8E1
:103DD0003F000128F2D184F83F2008E094F8400029
:103DE0000128EBD184F8402001E084F84120012231
:103DF000206801F047FC0F492068884203D1426CDB
:103E000042F4004242642068884208D0B0F1804FFA
:103E100005D00949884202D00849884204D1816806
:103E200001F00701062903D0016841F0010101609A
:103E3000002010BD002C014000040040000800409C
:103E400030B504460D460068002201F01BFC174BFC
:103E500041F2111120688A10984209D1036A0B427D
:103E600006D1036A134203D1436C23F40043436435
:103E70002068036A0B4206D1016A114203D101682E
:103E800021F00101016001203DB1042D08D0082D71
:103E900009D084F84100002030BD84F83E00FAE7E4
:103EA00084F83F00F7E784F84000F4E7002C014075
:103EB00000680A49884201D109480AE0B0F1804F00
:103EC00005D00849884207D105482C3001E0044854
:103ED0005830C169491CC16170470000002C014085
:103EE00070180020000400407047704770470000C1
:103EF000F8B5016804460868CA684B6910F00F0FEE
:103F00004FF0000559D003F0010602F490773743D3
:103F100065D0C10705D0D10503D5616C41F0010121
:103F20006164410705D5D90703D0616C41F00201F6
:103F30006164810705D5D90703D0616C41F00401A4
:103F40006164010707D502F02001314303D0616CA1
:103F500041F008016164616C00293AD0800604D503
:103F6000900602D5204601F0E0FC20684069616CB3
:103F7000C0F38010090700D460B3204601F0AEFC06
:103F800020684069400621D52068143050E8001FA1
:103F900021F0400140E80012002AF5D1E06BA8B101
:103FA0006D494163E06BFEF78FFA002811D0E06B9A
:103FB000416B01B0BDE8F040084783060FD593067A
:103FC0000DD52046BDE8F84001F0AFBC2046FFF714
:103FD0008DFFF8BD2046FFF789FF6564F8BD266BAD
:103FE0002023012E7CD1C6067AD5D60678D508685E
:103FF0004868009048694FF00206400640D5E16BE2
:10400000086840680004000CE8D0A28D8242E5D91F
:10401000E085886920282DD020680C3050E8001FEA
:1040200021F4807140E80012002AF5D12068143094
:1040300050E8001F21F0010140E80012002AF5D1EC
:104040002068143050E8001F21F0400140E80012C1
:10405000002AF5D184F84230256320680C3050E8FE
:10406000001F21F0100140E80012002AF5D1E06B9A
:10407000FEF707FA6663A08DE18D401A81B22AE04F
:10408000A08DE18D401A81B2E08D0028A6D00029D4
:10409000A4D022680C3252E8000F20F4907042E85D
:1040A0000007002FF5D12068143050E8002F22F0CF
:1040B000010240E80027002FF5D184F84230256343
:1040C00020680C3050E8002F22F0100240E8002356
:1040D000002BF5D166632046FFF707FFF8BDFFE729
:1040E00005062BD5150629D594F841002128F5D1D0
:1040F000A068B0F5805F01D12069B0B1206A411C91
:104100002162216800784860E08C401E0004000CA9
:10411000E084E3D12068C16821F08001C16020689B
:10412000C16841F04001C160D8E7206A0088C0F34F
:1041300008004860206A801C2062E5E74006CDD573
:104140005006CBD5CA68204622F04002CA6084F8E7
:10415000413000F0C6F8C1E7CD58000870B5040042
:1041600004D094F84100002510B106E0012070BD94
:1041700084F84050204600F023F8242084F84100C1
:104180002068C16821F40051C160204601F02EFC76
:104190002068016921F4904101612068416921F0A2
:1041A0002A0141612068C16841F40051C160656421
:1041B000202084F8410084F842006563002070BD2F
:1041C00030B585B0002400940194029403940068F3
:1041D000184988422CD11848816941F48041816195
:1041E000816901F480410491816941F00401816198
:1041F0008069124D00F0040004904FF400700090AC
:10420000022001900320039069462846FEF7B6F984
:104210002815CDE90004694628460294FEF7AEF958
:10422000002211462520FEF70BFB2520FEF7FAFAA7
:1042300005B030BD003801400010024000080140C8
:1042400070472DE9F843044690F841009846164619
:104250000D46202802D00220BDE8F88385B17EB14A
:1042600000206064212084F84100FEF77DFAA684D6
:104270008146E684A0682027B0F5805F02D003E085
:104280000120E9E7206910B12E4600250EE0002646
:104290000CE08021204601F005FCA8B9C6B116F853
:1042A000010B21684860E08C401EE084E08C4B46A6
:1042B0004FF00002CDF800800028EAD14FF0400115
:1042C000204601F0EFFB40B184F841700320C3E7C2
:1042D00035F8020BC0F30800E3E784F841700020D2
:1042E000BAE77047FEE70000F0B500230A24302546
:1042F00037261F4611E000BFB4EB107F02D905EB53
:10430000107C01E006EB107C01F813C001EB430CBC
:1043100000015B1C8CF80170DBB29342ECD3F0BD62
:104320002DE9F04786B000243548009401940294AA
:104330000394816941F020018161816901F02001CC
:104340000491816941F004018161816901F00401F6
:104350000491816941F0080181618069DFF8A490CE
:1043600000F0080004900022A2214846FEF7F6F96A
:10437000DFF894A04FF48068002241465046FEF7D3
:10438000EDF9012211035046FEF7E8F9A2200125BC
:104390000326CDE90005CDE9024669464846FEF709
:1043A000EDF81A4F0820CDE9000769460294484607
:1043B000FEF7E4F80220CDE90240CDE90085694628
:1043C0005046FEF7DBF80095CDE90174694650468A
:1043D000FEF7D4F84FF4A040CDE90005CDE9024640
:1043E00069465046FEF7CAF8002211460920FEF73A
:1043F00027FA0920FEF716FA06B0BDE8F08700009C
:104400000010024000080140000C014000001110A3
:1044100010B596B000240F94109411941294139434
:104420001C2108A81494FCF7F6F820216846FCF734
:10443000F2F82948274901604721C0E9011440F2F8
:104440002B11C0E903148021C0E90541FFF72CFAC4
:1044500008B1FEF714F84FF480500F900FA91E48D2
:10446000FFF7C0FA08B1FEF70AF81B48FFF76BFC2C
:1044700008B1FEF704F8139413A917481494FFF732
:10448000DFF908B1FDF7FBFF6020CDE90804042047
:104490000A94CDE90B400D94002208A90E480E9411
:1044A000FFF7EBFB08B1FDF7EAFF00944FF4005073
:1044B000CDE90440029401940394694606480794A8
:1044C000FFF794F908B1FDF7DAFF0348FFF792FB15
:1044D00016B010BD002C01409401002010B58EB024
:1044E00000240794089409940A940B941C216846AC
:1044F0000C94FCF790F81E484FF080410160472172
:10450000C0E9011440F22B11C0E90314802181613C
:10451000FFF7CAF908B1FDF7B2FF4FF480500790DA
:1045200007A91348FFF75EFA08B1FDF7A8FF104886
:10453000FFF709FC08B1FDF7A2FF0B940BA90C488B
:104540000C94FFF77DF908B1FDF799FF6020CDE9E4
:10455000000402940022694605480494FFF78DFB8D
:1045600008B1FDF78CFF0248FFF744FB0EB010BD09
:10457000DC01002010B58EB0002407940894099443
:104580000A940B941C2168460C94FCF744F81F48CD
:104590001D4901604721C0E9011440F22B11C0E917
:1045A000031480218161FFF77FF908B1FDF767FFF0
:1045B0004FF48050079007A91448FFF713FA08B189
:1045C000FDF75DFF1148FFF7BEFB08B1FDF757FF90
:1045D0000B940BA90D480C94FFF732F908B1FDF7C5
:1045E0004EFF6020CDE900040420049000226946BB
:1045F00002940648FFF741FB08B1FDF740FF03486E
:10460000FFF7F8FA0EB010BD0004004024020020AD
:104610000C4810B50A4901604FF4E13141600021B6
:1046200081600822C160C0E904128161C161FFF7A5
:1046300095FD002803D0BDE81040FDF720BF10BD58
:10464000003801406C02002010B500220F491048CC
:1046500001F040FD08B1FDF712FF0E490C4801F0D2
:104660001CFF08B1FDF70BFF0B49094801F03EFBA9
:1046700008B1FDF704FF064801F064FF002803D0ED
:10468000BDE81040FDF7FBBE10BD0000000000209B
:10469000B40200205001002050000020FEE7F0B5D9
:1046A0000DF1140C9CE8F00001608280836000F141
:1046B000100C84818CE8E0000021C161016241623C
:1046C000012280F8282080F82910F0BD70B514462A
:1046D0000E460546B2F5000F0EDBE88A03F03AFA03
:1046E000214603F07FFA03F015FA024631462846C8
:1046F000BDE8704000F002B870BD000070B504461F
:10470000806915460E46A84200D2054694F8290055
:1047100010B1204600F028F884F82860A189A0682C
:10472000012E1CD05FF00002FEF718F8A08A0D4998
:10473000B1FBF0F02169401E80B20968C8622169AE
:104740004008096848630020E0616562012084F840
:1047500029002069BDE870400021FFF723BB01223A
:10476000E2E7000040420F0000690021FFF768BB4C
:1047700070B5464C94F82900002540B3E069616AA1
:10478000884224D32046FFF7EFFF84F82950E08ABF
:1047900003F0E0F90646606A03F0DCF9314603F005
:1047A000F7F8064694F82800012806D03046216A1A
:1047B00003F0E4FA06D2002008E03146206A03F054
:1047C00079F803E03146206A03F00AFB20622F4C9F
:1047D0002C3494F8290040B3E069616A884224D3FC
:1047E0002046FFF7C1FF84F82950E08A03F0B2F9B0
:1047F0000646606A03F0AEF9314603F0C9F8064692
:1048000094F82800012806D03046216A03F0B6FA51
:1048100006D2002008E03146206A03F04BF803E09E
:104820003146206A03F0DCFA2062184C583494F8C0
:104830002900002828D0E069616A884224D32046F4
:10484000FFF792FF84F82950E08A03F083F90546C8
:10485000606A03F07FF9294603F09AF8054694F858
:104860002800012806D02846216A03F087FA06D2DC
:10487000002008E02946206A03F01CF803E02946DE
:10488000206A03F0ADFA206270BD000070180020AD
:104890003EB514460D46B1F5000F07DA03B025A268
:1048A000BDE8304080212C48FBF7C6BC01280CD065
:1048B00002281AD0032828D003B00346BDE83040B0
:1048C00026A280212448FBF7B7BC0A4621462C4883
:1048D000FFF7FCFE284602F0C1FF0CB129A200E060
:1048E0002BA28DE807002FA21EE00A46214634487D
:1048F000FFF7ECFE284602F0B1FF0CB121A200E068
:1049000023A28DE807002FA20EE00A462146344874
:10491000FFF7DCFE284602F0A1FF0CB119A200E06F
:104920001BA28DE807002FA280210B48FBF784FC17
:104930003EBD00004572726F723A20446973746123
:104940006E6365206D75737420626520706F736986
:10495000746976650D0A0000F41800204572726FC4
:10496000723A20496E76616C6964206D6F746F7263
:10497000206E756D6265722025640D0A00000000CE
:1049800070180020436C6F636B77697365000000DB
:10499000436F756E7465722D636C6F636B776973AB
:1049A000650000004D6F746F7231206D6F76696E17
:1049B0006720252E31666D6D2025730D0A000000DD
:1049C0009C1800204D6F746F7232206D6F76696E87
:1049D0006720252E31666D6D2025730D0A000000BD
:1049E000C81800204D6F746F7233206D6F76696E3A
:1049F0006720252E31666D6D2025730D0A0000009D
:104A0000FEE72DE9F84F044640F68F7B48F60F7914
:104A10004FF480684FF0000ABDE1B0F8441011F087
:104A20000F0539D030F8256031047ED530F82510D7
:104A300001EA0B0141F0800120F8251005EB85000B
:104A400004EBC00797F85C0107F5A87700286DD044
:104A5000F87802286BD03978226832F8210048F6BD
:104A60008F73184048F2C003184322F821003978A8
:104A7000206830F82120B0F8503052047DD5022251
:104A800002EBC1015A1808EB4201415A8905890D10
:104A9000009173D03A89DDE0C9062BD4018801EA80
:104AA000090141F400410180206804F11005B0F8CB
:104AB0005030217C022202EBC1015A1808EB42015E
:104AC000405AC0F30900E062616A08446062002154
:104AD0002046FDF706FF607B00289DD0A8690028CE
:104AE0009AD1607B216840F08000A1F84C0084F8E6
:104AF0000DA050E1018804F5A8750A0521D5B0F88C
:104B000050202B78062101EBC3010A4408EB420137
:104B1000405A04F52671C0F30903EB61EA88206866
:104B200002F0A4FB2068018802E0AEE06EE07EE0C7
:104B300001EA0B0141F0800101802046FEF72CFBC9
:104B400029E10904D5D5018801EA0B0141F0800172
:104B500001802068B0F850202B78062101EBC301BA
:104B60000A4408EB4201405A83059B0DEB6110D0CB
:104B7000696971B1EA88206801E05FE05DE002F0F8
:104B800075FBE96968690844686100212046FDF702
:104B9000B1FE216808880205ABD4C0F301300328B8
:104BA000A7D0B1F850000844B0F80C14C1F30901C3
:104BB000A0F80C142A6900F20C403E2A09D95109C8
:104BC000D20600D1491E02884FF4004343EA8121F6
:104BD00009E0B2B15108D20700D0491C02884FF653
:104BE000FF7303EA81210A430280216808884BF69B
:104BF0008F72104080F4405048F2800210430880C9
:104C0000C9E0018841F400410180EEE72068B0F876
:104C100050203B78062101EBC3010A4408EB420116
:104C2000415A8905890D009118D0FA8812E0324660
:104C300039462046FDF7BAFE00900FE0062202EB4F
:104C4000C1015A1808EB4201415A8905890D0091AA
:104C500004D07A897969009B02F008FBF869009911
:104C60000844F8617969009808447861B86918B116
:104C700039690098814204D939782046FDF73AFE17
:104C800003E03946206802F067F830062ED505EBC0
:104C9000850004EBC001206830F8252002EA0902F3
:104CA00042F4004220F82520C87C103101281ED093
:104CB000F0056CD42068B0F850300D78022202EB79
:104CC000C5021A4408EB4202805A8A69C0F30900FF
:104CD000824255D9121A8A6154D04A6902444A6103
:104CE000CA691044C861206802F036F853E0C1F880
:104CF00018A0087B524608B3700620D5487810B13A
:104D0000012812D03AE02068B0F8502010440A7808
:104D100000EB0210B0F80424C2F30902A0F8042446
:104D2000B0F8042442F4004206E02068B0F85030A5
:104D300018440B7800EB0310A0F804241EE04B7815
:104D4000206813B1012B11D018E0B0F850201044A6
:104D50000A7800EB0210B0F80C24C2F30902A0F8A4
:104D60000C24B0F80C2442F4004205E0B0F85030B6
:104D700018440B7800EB0310A0F80C24097802E02B
:104D8000C1F818A0E9B22046FDF7ABFD03E03246BA
:104D90002046FDF77EFE2068B0F8441009043FF578
:104DA0003CAE0020BDE8F88F2DE9F04786B04F48B3
:104DB00000250295816941F004018161816901F05A
:104DC00004010491816941F00801816180694FF01B
:104DD000020900F008004FF0030ACDF80490444E99
:104DE000CDE903A0B088009069463068FDF7C6FBA6
:104DF00006F12C076946B88800903868FDF7BEFBBD
:104E000006F158086946B8F804000090D8F8000088
:104E1000FDF7B4FB01240194B08900906946B068A5
:104E2000FDF7ACFBB88900906946B868FDF7A6FBB2
:104E3000B8F80C0000906946D8F80800FDF79EFB12
:104E40002C4E0820CDE900062B4F694602953846C6
:104E5000FDF794FB002211460920FDF7F1FC092023
:104E6000FDF7E0FC6002CDE900096946CDF80CA031
:104E70003846FDF783FBDFF88480A702019469467A
:104E8000404600970294FDF779FB012239464046DF
:104E9000FDF764FCCDE90046694640460295FDF702
:104EA0006DFB002211460620FDF7CAFC0620FDF727
:104EB000B9FC2603009669464046CDE90145FDF759
:104EC0005DFB012231464046FDF748FCCDE9014536
:104ED000A403694640460094FDF750FB002221469A
:104EE0004046FDF73BFC06B0BDE8F08700100240ED
:104EF000701800200000111000080140000C014053
:104F00002DE9F0413B4886B0DFF8F08004C8434605
:104F100090E8F200CDE9022137488021CDE9001068
:104F20004A0019463648FFF7BAFB36482021CDE93A
:104F3000001033484346402219462C30CDE9024543
:104F4000FFF7ADFB30480221CDE900102C48434665
:104F5000012219465830CDE90267FFF7A0FBFFF7A1
:104F600023FF2548FEF712FD2748FEF70FFD2548D1
:104F7000FEF70CFD2548816941F48041816180691B
:104F8000234900F4804000902248082201604FF439
:104F9000E131416000218160C160C0E9041281619A
:104FA000C161FFF7DBF81CA01C4E00681C4F0024F9
:104FB00004AD0490285DC422002100F049FC285D66
:104FC0000322012100F044FC285D3246102100F04C
:104FD0003FFC285D3A466C2100F03AFC285D142223
:104FE000112100F035FC641C042CE3DB06B0BDE8A5
:104FF000F0810000FC7F00089401002000080140BF
:105000007018002024020020DC0100200010024063
:10501000003801406C02002000010203000F08006C
:10502000C3000114704700002DE9F04F16468A4670
:1050300085B00446052276A1FBF73BFA98B376A12A
:105040002046FBF73BFB0AEB06074FF00009002860
:1050500043D073A12046FBF731FB002840D072A15A
:105060002046FBF72BFB002849D0042270A12046E4
:10507000FBF71FFA002856D005226FA12046FBF748
:1050800018FA00287DD005226DA12046FBF711FA01
:10509000002877D005B0234631465046BDE8F04F92
:1050A000694AFBF7C9B86079A0F13101032912D828
:1050B0003038C5B23D212046FBF7D2F948B1401C3B
:1050C000FBF7C1F981B205B02846BDE8F04F00F00A
:1050D000A9B95EA288E067A286E000F005FA04E0C4
:1050E000704980227048FBF7BDFA721E6E49504627
:1050F000FBF7B8FA07F8019C05B0BDE8F08F6B48E4
:10510000FFF732FB6A48FFF72FFB6A48FFF72CFBDB
:10511000664981F82990664981F82990654981F8A6
:10512000299065A260E02079A0F1310103294DD8D2
:10513000303800F0FF0B3D212046FBF791F9054682
:105140003A212046FBF78CF90446002D3CD0002C78
:105150003AD0A54238D2601B401E8046102825DA7E
:105160000246691C6846FBF77DFA4D460DF808902B
:105170000122611C04A8FBF775FA8DF811506846EE
:1051800001E025E026E002F05FF902F01FFA044694
:1051900004A8FBF758F910F0FF0209D0012A07D044
:1051A00050A231465046FBF747F8A5E759A2F8E769
:1051B00021465846FFF76CFB721E3B495046FBF7F1
:1051C00051FA07F8015C97E75C4A0DE05CA20BE03E
:1051D000674A09E0601DFBF736F9664B4FF48041E2
:1051E000012808D068B164A205B031465046BDE838
:1051F000F04FFBF721B801221846FDF7AFFA67A27E
:10520000F2E700221846FDF7A9FA6BA2ECE70000CE
:105210005350454544000000535441545553000039
:1052200048454C50000000005245534554000000D2
:105230004D4F5645000000005343414E5F000000B3
:10524000504231343D000000EC8000084572726F1E
:10525000723A20496E76616C69642053504545442A
:1052600020636F6D6D616E6420666F726D61740D89
:105270000A0000004572726F723A20496E76616CC6
:105280006964206D6F746F72206E756D6265722037
:10529000696E20535045454420636F6D6D616E64A7
:1052A0000D0A0000E0810008F418002070180020AA
:1052B0009C180020C8180020416C6C206D6F746F22
:1052C00072732068617665206265656E2073746F05
:1052D0007070656420616E642072657365740D0A78
:1052E000000000004572726F723A20446972656373
:1052F00074696F6E206D757374206265203020288C
:1053000043435729206F72203120284357290D0A23
:10531000000000004572726F723A20446973746134
:105320006E636520706172616D6574657220746F63
:105330006F206C6F6E670D0A000000005886000831
:105340004572726F723A20496E76616C6964206DA5
:105350006F746F72206E756D62657220696E204D7C
:105360004F564520636F6D6D616E640D0A0000003D
:10537000A8800008000C01404572726F723A2050FC
:105380004231342076616C7565206D7573742062CE
:10539000652030206F7220310D0A00004D6F746F50
:1053A000722064697361626C6564202850423134F4
:1053B0003D31290D0A0000004D6F746F7220656E3B
:1053C00061626C65642028504231343D30290D0AF9
:1053D00000000000704700000A480B4A0849C0E975
:1053E00001124FF07C52C26001220274427441618A
:1053F00081610021017041708170C17000F006B8B8
:1054000000002041741900200000A0400448002141
:10541000012201704170C170017142718171704748
:1054200089010020642900D26421012809D00228C2
:105430000CD003280FD0034609A280211148FAF7A7
:10544000FBBE11480B4611A28182F6E716480B46B7
:1054500016A28182F1E71C480B461CA28182ECE770
:105460004572726F723A20496E76616C6964206D84
:105470006F746F72206E756D6265722025640D0AFF
:1054800000000000F4180020701800204D6F746FA9
:1054900072312073706565642073657420746F20A9
:1054A000256420487A0D0A009C1800204D6F746F07
:1054B00072322073706565642073657420746F2088
:1054C000256420487A0D0A00C81800204D6F746FBB
:1054D00072332073706565642073657420746F2067
:1054E000256420487A0D0A002DE9F0471A4DCCB00A
:1054F000286A02F0B3F9194E80468946306A02F0F4
:10550000ADF9174F04468A46386A02F0A7F90346F8
:1055100095F82900CDF82080CDE90990A88A96F861
:105520002920CDE90620CDE9044AB28A97F829005E
:10553000CDE90202CDE90031BB8A0A4A4FF48071FD
:105540000BA8FAF779FE80220BA90748FBF78AF827
:105550004CB0BDE8F0870000C81800209C1800205F
:105560007018002030810008F4180020FDF702B9FF
:1055700030B593B028216846FBF74DF814210AA8EE
:10558000FBF749F8002401200F94109411940104B2
:1055900012948DE8130004904FF4E010CDE9081048
:1055A000022507956846FDF77BFF08B172B6FEE756
:1055B0000F20CDE90A054FF48060CDE90C400221AF
:1055C0000AA80E94FDF790FE08B172B6FEE710200F
:1055D0000F9012940FA8FDF711FE002801D072B6AB
:1055E000FEE713B030BD70470148FEF76ABA00000D
:1055F000940100200148FEF764BA0000DC0100209D
:105600000148FEF75EBA000024020020F0B50268EF
:10561000194B1A4C1A4D4FF08047984205D0B842AA
:1056200003D0A04201D0A84203D122F070064A68FC
:105630003243984205D0B84203D0A04201D0A842DC
:1056400003D122F44074CA6822434C6922F08002DC
:10565000224302608A68C2620A688262984201D16B
:1056600009690163012141610169C90703D0016929
:1056700021F001010161F0BD002C01400004004057
:105680000008004010B501F01F030121046A994091
:105690008C430462016A9A401143016210BD10B547
:1056A000846842EA032224F47F440A43224382604E
:1056B00010BD826822F070020A4342F00701816047
:1056C0007047000030B5036A026A22F001020262EC
:1056D0004268846924F073050C682C4323F00205AA
:1056E0008B682B430A4DA8420BD123F00805CB68E9
:1056F00022F440722B434D6923F0040315438A6959
:105700002A434260846149684163036230BD0000FE
:10571000002C014030B5026A036A23F010030362D3
:10572000436884690D6824F4E64444EA05248D68DE
:1057300022F0200242EA05120B4DA8420ED1CD689C
:1057400022F0800242EA05124D6923F4406343EAE5
:1057500085038D6922F0400243EA8503436084613A
:1057600049688163026230BD002C014030B5036A94
:10577000026A22F4807202624268C46923F40073F0
:1057800024F073050C682C438D6843EA05230C4D07
:10579000A8420ED1CD6823F4006343EA05234D6986
:1057A00022F4405242EA05128D6923F4806342EAF2
:1057B00005124260C4614968C163036230BD0000E4
:1057C000002C014030B5046A026A22F48052026261
:1057D0004268C3690D6823F4E64343EA05238D68F4
:1057E00024F4005444EA0534064DA84204D14D691E
:1057F00022F4804242EA85124260C3614968016432
:10580000046230BD002C014010B5036A046A24F024
:1058100001040462846924F0F00444EA021423F0D1
:105820000A020A438461026210BD10B5036A046A69
:1058300024F010040462846923F0A00324F470446B
:1058400044EA023243EA01118261016210BD0000A4
:105850002DE9FC4105238DF800308DF8010041F061
:1058600080008DF80200100E8DF80300100C8DF8EA
:105870000400100A8DF80500072400208DF806208A
:105880006D46014626466B5C5FF0000203F001079F
:10589000B7EBD01F02D086EA400000E04000521C67
:1058A0005B08D2B2C0B2082AF0D3491CC9B2A142E7
:1058B000E9D38DF807006423082229460248FEF741
:1058C000C0FCBDE8FC8100006C02002010B5406AFD
:1058D0000021C185C184FEF709FB10BD01680C31B0
:1058E00051E8002F22F4907241E80023002BF5D1FB
:1058F0000168143151E8002F22F0010241E8002331
:10590000002BF5D1016B012909D101680C3151E857
:10591000002F22F0100241E80023002BF5D12021B6
:1059200080F8421000210163704708B590F84210DA
:10593000222901D0022008BD82684FF480539A4288
:1059400001D1016921B1816A9A421BD04AB10AE0B2
:105950000268816A5268C2F308020A80816A891C5F
:1059600008E0026972B10268526802F07F020A70B0
:10597000816A491C8162C18D491E0904090CC185D7
:1059800003D01BE002685268F1E70168CA6822F0A0
:105990002002CA600168CA6822F48072CA60016885
:1059A0004A6922F001024A61202180F84210002158
:1059B0004163026B012A03D0FEF742FC002008BDC0
:1059C000016301680C3151E8002F22F0100241E818
:1059D0000023002BF5D101680A68D20602D50A68B7
:1059E00049680091818DFEF780FAE7E770B50446BB
:1059F00000680169E26821F44051114301612169A5
:105A0000A0680843616908432168CA6841F20C63D1
:105A10009A430243CA6020684169A26921F4407137
:105A2000114341611E492068884202D1FDF702FD01
:105A300001E0FDF7EFFC00EBC00101EB0012606834
:105A400064218000B2FBF0F3B3FBF1F36FF01806B2
:105A50007343B2FBF0F5B2FBF0F605EB830532239E
:105A600003EB0515B5FBF1F5B6FBF1F605F0F00516
:105A700005EB0615B2FBF0F6B2FBF0F0B0FBF1F06F
:105A80006FF01802504306EB800003EB0010B0FBF0
:105A9000F1F0216800F00F002844886070BD00001C
:105AA000003801402DE9F843984617460D46044654
:105AB000089E24E0701C22D0FCF756FEA0EB0800E4
:105AC000B0421AD8CEB12068C168490717D5802DD9
:105AD00015D0402D13D00168C94309070FD40168C0
